{
  "contractName": "AttendanceContract",
  "abi": [
    {
      "inputs": [],
      "stateMutability": "nonpayable",
      "type": "constructor"
    },
    {
      "anonymous": false,
      "inputs": [
        {
          "indexed": true,
          "internalType": "address",
          "name": "participant",
          "type": "address"
        }
      ],
      "name": "AttendanceMarked",
      "type": "event"
    },
    {
      "inputs": [
        {
          "internalType": "address",
          "name": "",
          "type": "address"
        }
      ],
      "name": "attendanceRecords",
      "outputs": [
        {
          "internalType": "bool",
          "name": "",
          "type": "bool"
        }
      ],
      "stateMutability": "view",
      "type": "function",
      "constant": true
    },
    {
      "inputs": [],
      "name": "projectManager",
      "outputs": [
        {
          "internalType": "address",
          "name": "",
          "type": "address"
        }
      ],
      "stateMutability": "view",
      "type": "function",
      "constant": true
    },
    {
      "inputs": [],
      "name": "markAttendance",
      "outputs": [],
      "stateMutability": "nonpayable",
      "type": "function"
    },
    {
      "inputs": [
        {
          "internalType": "address",
          "name": "participant",
          "type": "address"
        }
      ],
      "name": "isParticipantPresent",
      "outputs": [
        {
          "internalType": "bool",
          "name": "",
          "type": "bool"
        }
      ],
      "stateMutability": "view",
      "type": "function",
      "constant": true
    }
  ],
  "bytecode": "0x608060405234801561001057600080fd5b50336000806101000a81548173ffffffffffffffffffffffffffffffffffffffff021916908373ffffffffffffffffffffffffffffffffffffffff16021790555061043f806100606000396000f3fe608060405234801561001057600080fd5b506004361061004c5760003560e01c8063029eb76e146100515780633dc938c11461006f5780634466fe9e14610079578063fda56bdf146100a9575b600080fd5b6100596100d9565b60405161006691906102dd565b60405180910390f35b6100776100fd565b005b610093600480360381019061008e9190610329565b610226565b6040516100a09190610371565b60405180910390f35b6100c360048036038101906100be9190610329565b61027c565b6040516100d09190610371565b60405180910390f35b60008054906101000a900473ffffffffffffffffffffffffffffffffffffffff1681565b600160003373ffffffffffffffffffffffffffffffffffffffff1673ffffffffffffffffffffffffffffffffffffffff16815260200190815260200160002060009054906101000a900460ff161561018a576040517f08c379a0000000000000000000000000000000000000000000000000000000008152600401610181906103e9565b60405180910390fd5b60018060003373ffffffffffffffffffffffffffffffffffffffff1673ffffffffffffffffffffffffffffffffffffffff16815260200190815260200160002060006101000a81548160ff0219169083151502179055503373ffffffffffffffffffffffffffffffffffffffff167f35816c7b6ffed555855d593ab845540d0b5b4fc5be1c40ba6dcf67e3b1a4ce9060405160405180910390a2565b6000600160008373ffffffffffffffffffffffffffffffffffffffff1673ffffffffffffffffffffffffffffffffffffffff16815260200190815260200160002060009054906101000a900460ff169050919050565b60016020528060005260406000206000915054906101000a900460ff1681565b600073ffffffffffffffffffffffffffffffffffffffff82169050919050565b60006102c78261029c565b9050919050565b6102d7816102bc565b82525050565b60006020820190506102f260008301846102ce565b92915050565b600080fd5b610306816102bc565b811461031157600080fd5b50565b600081359050610323816102fd565b92915050565b60006020828403121561033f5761033e6102f8565b5b600061034d84828501610314565b91505092915050565b60008115159050919050565b61036b81610356565b82525050565b60006020820190506103866000830184610362565b92915050565b600082825260208201905092915050565b7f417474656e64616e636520616c7265616479206d61726b656400000000000000600082015250565b60006103d360198361038c565b91506103de8261039d565b602082019050919050565b60006020820190508181036000830152610402816103c6565b905091905056fea2646970667358221220eaabc7f47685a5da9239ceabfa9c7b148058c5c44d433795cffc1e9dc4720f4564736f6c634300080d0033",
  "immutableReferences": {},
  "source": "// SPDX-License-Identifier: MIT\r\npragma solidity ^0.8.13;\r\n\r\ncontract AttendanceContract {\r\n    address public projectManager;\r\n    mapping(address => bool) public attendanceRecords;\r\n\r\n    event AttendanceMarked(address indexed participant);\r\n\r\n    constructor() {\r\n        projectManager = msg.sender;\r\n    }\r\n\r\n    modifier onlyManager() {\r\n        require(msg.sender == projectManager, \"Only the project manager can perform this action\");\r\n        _;\r\n    }\r\n\r\n    function markAttendance() public {\r\n        require(!attendanceRecords[msg.sender], \"Attendance already marked\");\r\n        attendanceRecords[msg.sender] = true;\r\n        emit AttendanceMarked(msg.sender);\r\n    }\r\n\r\n    function isParticipantPresent(address participant) public view returns (bool) {\r\n        return attendanceRecords[participant];\r\n    }\r\n\r\n   // function terminateContract() public onlyManager {\r\n    //    selfdestruct(payable(projectManager));\r\n  //  }\r\n}\r\n",
  "sourcePath": "C:\\Users\\20114\\Downloads\\bcproject\\contracts\\AttendanceContract.sol",
  "compiler": {
    "name": "solc",
    "version": "0.8.13+commit.abaa5c0e.Emscripten.clang"
  },
  "schemaVersion": "3.4.16",
  "updatedAt": "2024-05-21T11:40:46.883Z",
  "networkType": "ethereum",
  "devdoc": {
    "kind": "dev",
    "methods": {},
    "version": 1
  },
  "userdoc": {
    "kind": "user",
    "methods": {},
    "version": 1
  }
}